{
  "address": "0x9B08fa696E8cC3Af0aDF34479bc16d245a35656a",
  "abi": [
    {
      "inputs": [],
      "stateMutability": "nonpayable",
      "type": "constructor"
    },
    {
      "inputs": [],
      "name": "MedArchive__isNotYourPatient",
      "type": "error"
    },
    {
      "anonymous": false,
      "inputs": [
        {
          "indexed": true,
          "internalType": "address",
          "name": "hospitalAddress",
          "type": "address"
        },
        {
          "indexed": true,
          "internalType": "uint256",
          "name": "patientId",
          "type": "uint256"
        },
        {
          "indexed": false,
          "internalType": "uint256",
          "name": "recordId",
          "type": "uint256"
        }
      ],
      "name": "NewRecord",
      "type": "event"
    },
    {
      "anonymous": false,
      "inputs": [
        {
          "indexed": true,
          "internalType": "address",
          "name": "hospitalAddress",
          "type": "address"
        },
        {
          "indexed": false,
          "internalType": "uint256",
          "name": "patientId",
          "type": "uint256"
        }
      ],
      "name": "PatientAdded",
      "type": "event"
    },
    {
      "anonymous": false,
      "inputs": [
        {
          "indexed": true,
          "internalType": "address",
          "name": "hospitalAddress",
          "type": "address"
        },
        {
          "indexed": true,
          "internalType": "uint256",
          "name": "patientId",
          "type": "uint256"
        },
        {
          "indexed": false,
          "internalType": "uint256",
          "name": "recordId",
          "type": "uint256"
        }
      ],
      "name": "PatientShared",
      "type": "event"
    },
    {
      "inputs": [
        {
          "internalType": "string",
          "name": "_patientName",
          "type": "string"
        }
      ],
      "name": "addPatient",
      "outputs": [],
      "stateMutability": "nonpayable",
      "type": "function"
    },
    {
      "inputs": [
        {
          "internalType": "uint256",
          "name": "_patientId",
          "type": "uint256"
        },
        {
          "internalType": "string",
          "name": "_description",
          "type": "string"
        },
        {
          "internalType": "string",
          "name": "_cid",
          "type": "string"
        }
      ],
      "name": "addRecord",
      "outputs": [],
      "stateMutability": "nonpayable",
      "type": "function"
    },
    {
      "inputs": [
        {
          "internalType": "uint256",
          "name": "_patientId",
          "type": "uint256"
        }
      ],
      "name": "getPatient",
      "outputs": [
        {
          "components": [
            {
              "internalType": "uint256",
              "name": "patientId",
              "type": "uint256"
            },
            {
              "internalType": "string",
              "name": "patientName",
              "type": "string"
            },
            {
              "internalType": "address",
              "name": "hospitalAddr",
              "type": "address"
            }
          ],
          "internalType": "struct MedArchive.Patient",
          "name": "",
          "type": "tuple"
        }
      ],
      "stateMutability": "view",
      "type": "function"
    },
    {
      "inputs": [
        {
          "internalType": "uint256",
          "name": "_patientId",
          "type": "uint256"
        },
        {
          "internalType": "uint256",
          "name": "_recordId",
          "type": "uint256"
        }
      ],
      "name": "getPatientRecord",
      "outputs": [
        {
          "components": [
            {
              "internalType": "uint256",
              "name": "id",
              "type": "uint256"
            },
            {
              "internalType": "uint256",
              "name": "date",
              "type": "uint256"
            },
            {
              "internalType": "string",
              "name": "description",
              "type": "string"
            },
            {
              "internalType": "string",
              "name": "cid",
              "type": "string"
            }
          ],
          "internalType": "struct MedArchive.PatientRecord",
          "name": "",
          "type": "tuple"
        }
      ],
      "stateMutability": "view",
      "type": "function"
    },
    {
      "inputs": [
        {
          "internalType": "uint256",
          "name": "_patientId",
          "type": "uint256"
        }
      ],
      "name": "getPatientRecords",
      "outputs": [
        {
          "components": [
            {
              "internalType": "uint256",
              "name": "id",
              "type": "uint256"
            },
            {
              "internalType": "uint256",
              "name": "date",
              "type": "uint256"
            },
            {
              "internalType": "string",
              "name": "description",
              "type": "string"
            },
            {
              "internalType": "string",
              "name": "cid",
              "type": "string"
            }
          ],
          "internalType": "struct MedArchive.PatientRecord[]",
          "name": "",
          "type": "tuple[]"
        }
      ],
      "stateMutability": "view",
      "type": "function"
    },
    {
      "inputs": [],
      "name": "getSharedRecords",
      "outputs": [
        {
          "components": [
            {
              "internalType": "uint256",
              "name": "id",
              "type": "uint256"
            },
            {
              "internalType": "uint256",
              "name": "date",
              "type": "uint256"
            },
            {
              "internalType": "string",
              "name": "description",
              "type": "string"
            },
            {
              "internalType": "string",
              "name": "cid",
              "type": "string"
            }
          ],
          "internalType": "struct MedArchive.PatientRecord[]",
          "name": "",
          "type": "tuple[]"
        }
      ],
      "stateMutability": "view",
      "type": "function"
    },
    {
      "inputs": [],
      "name": "s_owner",
      "outputs": [
        {
          "internalType": "address",
          "name": "",
          "type": "address"
        }
      ],
      "stateMutability": "view",
      "type": "function"
    },
    {
      "inputs": [
        {
          "internalType": "address",
          "name": "_to",
          "type": "address"
        },
        {
          "internalType": "uint256",
          "name": "_patientId",
          "type": "uint256"
        },
        {
          "internalType": "uint256",
          "name": "_recordId",
          "type": "uint256"
        }
      ],
      "name": "sharePatientsRecord",
      "outputs": [],
      "stateMutability": "nonpayable",
      "type": "function"
    }
  ],
  "transactionHash": "0x1b386bad64b964f01450c00ff4f4a864913ceb92fb9b407e69c89ae0619677d5",
  "args": [],
  "numDeployments": 1,
  "solcInputHash": "176fa542ec98c39151a2e571a6444bed",
  "bytecode": "0x608060405234801561001057600080fd5b50336000806101000a81548173ffffffffffffffffffffffffffffffffffffffff021916908373ffffffffffffffffffffffffffffffffffffffff160217905550611ade806100606000396000f3fe608060405234801561001057600080fd5b50600436106100885760003560e01c8063e39782401161005b578063e397824014610125578063e455516c14610143578063f16a8be414610173578063fb87cf941461019157610088565b806333f90dcd1461008d5780637d3a6796146100a9578063baf1b1cd146100d9578063dce7e843146100f5575b600080fd5b6100a760048036038101906100a291906110bd565b6101ad565b005b6100c360048036038101906100be9190611152565b61049a565b6040516100d091906112af565b60405180910390f35b6100f360048036038101906100ee91906112fd565b6105f6565b005b61010f600480360381019061010a9190611152565b61083c565b60405161011c919061147c565b60405180910390f35b61012d610a23565b60405161013a91906114ad565b60405180910390f35b61015d600480360381019061015891906114c8565b610a47565b60405161016a9190611572565b60405180910390f35b61017b610c0a565b604051610188919061147c565b60405180910390f35b6101ab60048036038101906101a69190611594565b610dde565b005b843373ffffffffffffffffffffffffffffffffffffffff16600260003373ffffffffffffffffffffffffffffffffffffffff1673ffffffffffffffffffffffffffffffffffffffff168152602001908152602001600020600083815260200190815260200160002060020160009054906101000a900473ffffffffffffffffffffffffffffffffffffffff1673ffffffffffffffffffffffffffffffffffffffff1614610286576040517ff58f313900000000000000000000000000000000000000000000000000000000815260040160405180910390fd5b6000600360003373ffffffffffffffffffffffffffffffffffffffff1673ffffffffffffffffffffffffffffffffffffffff1681526020019081526020016000206000888152602001908152602001600020805490509050600360003373ffffffffffffffffffffffffffffffffffffffff1673ffffffffffffffffffffffffffffffffffffffff1681526020019081526020016000206000888152602001908152602001600020604051806080016040528083815260200142815260200188888080601f016020809104026020016040519081016040528093929190818152602001838380828437600081840152601f19601f82011690508083019250505050505050815260200186868080601f016020809104026020016040519081016040528093929190818152602001838380828437600081840152601f19601f82011690508083019250505050505050815250908060018154018082558091505060019003906000526020600020906004020160009091909190915060008201518160000155602082015181600101556040820151816002019081610429919061181c565b50606082015181600301908161043f919061181c565b505050863373ffffffffffffffffffffffffffffffffffffffff167f04c42e394d1acd923f81a7f655f639e89e72df715cf9755da97487dde9596b228360405161048991906118fd565b60405180910390a350505050505050565b6104a2610fb9565b600260003373ffffffffffffffffffffffffffffffffffffffff1673ffffffffffffffffffffffffffffffffffffffff1681526020019081526020016000206000838152602001908152602001600020604051806060016040529081600082015481526020016001820180546105179061163f565b80601f01602080910402602001604051908101604052809291908181526020018280546105439061163f565b80156105905780601f1061056557610100808354040283529160200191610590565b820191906000526020600020905b81548152906001019060200180831161057357829003601f168201915b505050505081526020016002820160009054906101000a900473ffffffffffffffffffffffffffffffffffffffff1673ffffffffffffffffffffffffffffffffffffffff1673ffffffffffffffffffffffffffffffffffffffff16815250509050919050565b813373ffffffffffffffffffffffffffffffffffffffff16600260003373ffffffffffffffffffffffffffffffffffffffff1673ffffffffffffffffffffffffffffffffffffffff168152602001908152602001600020600083815260200190815260200160002060020160009054906101000a900473ffffffffffffffffffffffffffffffffffffffff1673ffffffffffffffffffffffffffffffffffffffff16146106cf576040517ff58f313900000000000000000000000000000000000000000000000000000000815260040160405180910390fd5b600460008573ffffffffffffffffffffffffffffffffffffffff1673ffffffffffffffffffffffffffffffffffffffff168152602001908152602001600020600360003373ffffffffffffffffffffffffffffffffffffffff1673ffffffffffffffffffffffffffffffffffffffff168152602001908152602001600020600085815260200190815260200160002083815481106107705761076f611918565b5b906000526020600020906004020190806001815401808255809150506001900390600052602060002090600402016000909190919091506000820154816000015560018201548160010155600282018160020190816107cf919061195d565b50600382018160030190816107e4919061195d565b505050823373ffffffffffffffffffffffffffffffffffffffff167ffb1bd2ca136d9608fb6cf2de35c96b94bc398d1aad99e2d95603b70b9113ba9b8460405161082e91906118fd565b60405180910390a350505050565b6060600360003373ffffffffffffffffffffffffffffffffffffffff1673ffffffffffffffffffffffffffffffffffffffff1681526020019081526020016000206000838152602001908152602001600020805480602002602001604051908101604052809291908181526020016000905b82821015610a18578382906000526020600020906004020160405180608001604052908160008201548152602001600182015481526020016002820180546108f59061163f565b80601f01602080910402602001604051908101604052809291908181526020018280546109219061163f565b801561096e5780601f106109435761010080835404028352916020019161096e565b820191906000526020600020905b81548152906001019060200180831161095157829003601f168201915b505050505081526020016003820180546109879061163f565b80601f01602080910402602001604051908101604052809291908181526020018280546109b39061163f565b8015610a005780601f106109d557610100808354040283529160200191610a00565b820191906000526020600020905b8154815290600101906020018083116109e357829003601f168201915b505050505081525050815260200190600101906108ae565b505050509050919050565b60008054906101000a900473ffffffffffffffffffffffffffffffffffffffff1681565b610a4f610ff0565b600360003373ffffffffffffffffffffffffffffffffffffffff1673ffffffffffffffffffffffffffffffffffffffff16815260200190815260200160002060008481526020019081526020016000208281548110610ab157610ab0611918565b5b90600052602060002090600402016040518060800160405290816000820154815260200160018201548152602001600282018054610aee9061163f565b80601f0160208091040260200160405190810160405280929190818152602001828054610b1a9061163f565b8015610b675780601f10610b3c57610100808354040283529160200191610b67565b820191906000526020600020905b815481529060010190602001808311610b4a57829003601f168201915b50505050508152602001600382018054610b809061163f565b80601f0160208091040260200160405190810160405280929190818152602001828054610bac9061163f565b8015610bf95780601f10610bce57610100808354040283529160200191610bf9565b820191906000526020600020905b815481529060010190602001808311610bdc57829003601f168201915b505050505081525050905092915050565b6060600460003373ffffffffffffffffffffffffffffffffffffffff1673ffffffffffffffffffffffffffffffffffffffff168152602001908152602001600020805480602002602001604051908101604052809291908181526020016000905b82821015610dd557838290600052602060002090600402016040518060800160405290816000820154815260200160018201548152602001600282018054610cb29061163f565b80601f0160208091040260200160405190810160405280929190818152602001828054610cde9061163f565b8015610d2b5780601f10610d0057610100808354040283529160200191610d2b565b820191906000526020600020905b815481529060010190602001808311610d0e57829003601f168201915b50505050508152602001600382018054610d449061163f565b80601f0160208091040260200160405190810160405280929190818152602001828054610d709061163f565b8015610dbd5780601f10610d9257610100808354040283529160200191610dbd565b820191906000526020600020905b815481529060010190602001808311610da057829003601f168201915b50505050508152505081526020019060010190610c6b565b50505050905090565b600060018060003373ffffffffffffffffffffffffffffffffffffffff1673ffffffffffffffffffffffffffffffffffffffff1681526020019081526020016000206000828254610e2f9190611a74565b9250508190559050604051806060016040528082815260200184848080601f016020809104026020016040519081016040528093929190818152602001838380828437600081840152601f19601f8201169050808301925050505050505081526020013373ffffffffffffffffffffffffffffffffffffffff16815250600260003373ffffffffffffffffffffffffffffffffffffffff1673ffffffffffffffffffffffffffffffffffffffff1681526020019081526020016000206000838152602001908152602001600020600082015181600001556020820151816001019081610f1b919061181c565b5060408201518160020160006101000a81548173ffffffffffffffffffffffffffffffffffffffff021916908373ffffffffffffffffffffffffffffffffffffffff1602179055509050503373ffffffffffffffffffffffffffffffffffffffff167f9f815c7c90015ccc408ebc7248155bc63ec6c595bea724abf4d4c58066fb400282604051610fac91906118fd565b60405180910390a2505050565b60405180606001604052806000815260200160608152602001600073ffffffffffffffffffffffffffffffffffffffff1681525090565b6040518060800160405280600081526020016000815260200160608152602001606081525090565b600080fd5b600080fd5b6000819050919050565b61103581611022565b811461104057600080fd5b50565b6000813590506110528161102c565b92915050565b600080fd5b600080fd5b600080fd5b60008083601f84011261107d5761107c611058565b5b8235905067ffffffffffffffff81111561109a5761109961105d565b5b6020830191508360018202830111156110b6576110b5611062565b5b9250929050565b6000806000806000606086880312156110d9576110d8611018565b5b60006110e788828901611043565b955050602086013567ffffffffffffffff8111156111085761110761101d565b5b61111488828901611067565b9450945050604086013567ffffffffffffffff8111156111375761113661101d565b5b61114388828901611067565b92509250509295509295909350565b60006020828403121561116857611167611018565b5b600061117684828501611043565b91505092915050565b61118881611022565b82525050565b600081519050919050565b600082825260208201905092915050565b60005b838110156111c85780820151818401526020810190506111ad565b60008484015250505050565b6000601f19601f8301169050919050565b60006111f08261118e565b6111fa8185611199565b935061120a8185602086016111aa565b611213816111d4565b840191505092915050565b600073ffffffffffffffffffffffffffffffffffffffff82169050919050565b60006112498261121e565b9050919050565b6112598161123e565b82525050565b6000606083016000830151611277600086018261117f565b506020830151848203602086015261128f82826111e5565b91505060408301516112a46040860182611250565b508091505092915050565b600060208201905081810360008301526112c9818461125f565b905092915050565b6112da8161123e565b81146112e557600080fd5b50565b6000813590506112f7816112d1565b92915050565b60008060006060848603121561131657611315611018565b5b6000611324868287016112e8565b935050602061133586828701611043565b925050604061134686828701611043565b9150509250925092565b600081519050919050565b600082825260208201905092915050565b6000819050602082019050919050565b6000608083016000830151611394600086018261117f565b5060208301516113a7602086018261117f565b50604083015184820360408601526113bf82826111e5565b915050606083015184820360608601526113d982826111e5565b9150508091505092915050565b60006113f2838361137c565b905092915050565b6000602082019050919050565b600061141282611350565b61141c818561135b565b93508360208202850161142e8561136c565b8060005b8581101561146a578484038952815161144b85826113e6565b9450611456836113fa565b925060208a01995050600181019050611432565b50829750879550505050505092915050565b600060208201905081810360008301526114968184611407565b905092915050565b6114a78161123e565b82525050565b60006020820190506114c2600083018461149e565b92915050565b600080604083850312156114df576114de611018565b5b60006114ed85828601611043565b92505060206114fe85828601611043565b9150509250929050565b6000608083016000830151611520600086018261117f565b506020830151611533602086018261117f565b506040830151848203604086015261154b82826111e5565b9150506060830151848203606086015261156582826111e5565b9150508091505092915050565b6000602082019050818103600083015261158c8184611508565b905092915050565b600080602083850312156115ab576115aa611018565b5b600083013567ffffffffffffffff8111156115c9576115c861101d565b5b6115d585828601611067565b92509250509250929050565b7f4e487b7100000000000000000000000000000000000000000000000000000000600052604160045260246000fd5b7f4e487b7100000000000000000000000000000000000000000000000000000000600052602260045260246000fd5b6000600282049050600182168061165757607f821691505b60208210810361166a57611669611610565b5b50919050565b60008190508160005260206000209050919050565b60006020601f8301049050919050565b600082821b905092915050565b6000600883026116d27fffffffffffffffffffffffffffffffffffffffffffffffffffffffffffffffff82611695565b6116dc8683611695565b95508019841693508086168417925050509392505050565b6000819050919050565b600061171961171461170f84611022565b6116f4565b611022565b9050919050565b6000819050919050565b611733836116fe565b61174761173f82611720565b8484546116a2565b825550505050565b600090565b61175c61174f565b61176781848461172a565b505050565b5b8181101561178b57611780600082611754565b60018101905061176d565b5050565b601f8211156117d0576117a181611670565b6117aa84611685565b810160208510156117b9578190505b6117cd6117c585611685565b83018261176c565b50505b505050565b600082821c905092915050565b60006117f3600019846008026117d5565b1980831691505092915050565b600061180c83836117e2565b9150826002028217905092915050565b6118258261118e565b67ffffffffffffffff81111561183e5761183d6115e1565b5b611848825461163f565b61185382828561178f565b600060209050601f8311600181146118865760008415611874578287015190505b61187e8582611800565b8655506118e6565b601f19841661189486611670565b60005b828110156118bc57848901518255600182019150602085019450602081019050611897565b868310156118d957848901516118d5601f8916826117e2565b8355505b6001600288020188555050505b505050505050565b6118f781611022565b82525050565b600060208201905061191260008301846118ee565b92915050565b7f4e487b7100000000000000000000000000000000000000000000000000000000600052603260045260246000fd5b6000815490506119568161163f565b9050919050565b81810361196b575050611a43565b61197482611947565b67ffffffffffffffff81111561198d5761198c6115e1565b5b611997825461163f565b6119a282828561178f565b6000601f8311600181146119d157600084156119bf578287015490505b6119c98582611800565b865550611a3c565b601f1984166119df87611670565b96506119ea86611670565b60005b82811015611a12578489015482556001820191506001850194506020810190506119ed565b86831015611a2f5784890154611a2b601f8916826117e2565b8355505b6001600288020188555050505b5050505050505b565b7f4e487b7100000000000000000000000000000000000000000000000000000000600052601160045260246000fd5b6000611a7f82611022565b9150611a8a83611022565b9250828201905080821115611aa257611aa1611a45565b5b9291505056fea2646970667358221220281ba024f7dbe22b0e093622accf04c294f4f95dad31a418246e7257c14748b864736f6c63430008110033",
  "devdoc": {
    "kind": "dev",
    "methods": {},
    "version": 1
  },
  "userdoc": {
    "kind": "user",
    "methods": {},
    "version": 1
  },
  "storageLayout": {
    "storage": [
      {
        "astId": 5,
        "contract": "contracts/MedArchive.sol:MedArchive",
        "label": "s_owner",
        "offset": 0,
        "slot": "0",
        "type": "t_address"
      },
      {
        "astId": 25,
        "contract": "contracts/MedArchive.sol:MedArchive",
        "label": "s_patientIds",
        "offset": 0,
        "slot": "1",
        "type": "t_mapping(t_address,t_uint256)"
      },
      {
        "astId": 32,
        "contract": "contracts/MedArchive.sol:MedArchive",
        "label": "s_hospitalPatients",
        "offset": 0,
        "slot": "2",
        "type": "t_mapping(t_address,t_mapping(t_uint256,t_struct(Patient)21_storage))"
      },
      {
        "astId": 40,
        "contract": "contracts/MedArchive.sol:MedArchive",
        "label": "s_hospitalRecords",
        "offset": 0,
        "slot": "3",
        "type": "t_mapping(t_address,t_mapping(t_uint256,t_array(t_struct(PatientRecord)14_storage)dyn_storage))"
      },
      {
        "astId": 46,
        "contract": "contracts/MedArchive.sol:MedArchive",
        "label": "s_sharedRecords",
        "offset": 0,
        "slot": "4",
        "type": "t_mapping(t_address,t_array(t_struct(PatientRecord)14_storage)dyn_storage)"
      }
    ],
    "types": {
      "t_address": {
        "encoding": "inplace",
        "label": "address",
        "numberOfBytes": "20"
      },
      "t_array(t_struct(PatientRecord)14_storage)dyn_storage": {
        "base": "t_struct(PatientRecord)14_storage",
        "encoding": "dynamic_array",
        "label": "struct MedArchive.PatientRecord[]",
        "numberOfBytes": "32"
      },
      "t_mapping(t_address,t_array(t_struct(PatientRecord)14_storage)dyn_storage)": {
        "encoding": "mapping",
        "key": "t_address",
        "label": "mapping(address => struct MedArchive.PatientRecord[])",
        "numberOfBytes": "32",
        "value": "t_array(t_struct(PatientRecord)14_storage)dyn_storage"
      },
      "t_mapping(t_address,t_mapping(t_uint256,t_array(t_struct(PatientRecord)14_storage)dyn_storage))": {
        "encoding": "mapping",
        "key": "t_address",
        "label": "mapping(address => mapping(uint256 => struct MedArchive.PatientRecord[]))",
        "numberOfBytes": "32",
        "value": "t_mapping(t_uint256,t_array(t_struct(PatientRecord)14_storage)dyn_storage)"
      },
      "t_mapping(t_address,t_mapping(t_uint256,t_struct(Patient)21_storage))": {
        "encoding": "mapping",
        "key": "t_address",
        "label": "mapping(address => mapping(uint256 => struct MedArchive.Patient))",
        "numberOfBytes": "32",
        "value": "t_mapping(t_uint256,t_struct(Patient)21_storage)"
      },
      "t_mapping(t_address,t_uint256)": {
        "encoding": "mapping",
        "key": "t_address",
        "label": "mapping(address => uint256)",
        "numberOfBytes": "32",
        "value": "t_uint256"
      },
      "t_mapping(t_uint256,t_array(t_struct(PatientRecord)14_storage)dyn_storage)": {
        "encoding": "mapping",
        "key": "t_uint256",
        "label": "mapping(uint256 => struct MedArchive.PatientRecord[])",
        "numberOfBytes": "32",
        "value": "t_array(t_struct(PatientRecord)14_storage)dyn_storage"
      },
      "t_mapping(t_uint256,t_struct(Patient)21_storage)": {
        "encoding": "mapping",
        "key": "t_uint256",
        "label": "mapping(uint256 => struct MedArchive.Patient)",
        "numberOfBytes": "32",
        "value": "t_struct(Patient)21_storage"
      },
      "t_string_storage": {
        "encoding": "bytes",
        "label": "string",
        "numberOfBytes": "32"
      },
      "t_struct(Patient)21_storage": {
        "encoding": "inplace",
        "label": "struct MedArchive.Patient",
        "members": [
          {
            "astId": 16,
            "contract": "contracts/MedArchive.sol:MedArchive",
            "label": "patientId",
            "offset": 0,
            "slot": "0",
            "type": "t_uint256"
          },
          {
            "astId": 18,
            "contract": "contracts/MedArchive.sol:MedArchive",
            "label": "patientName",
            "offset": 0,
            "slot": "1",
            "type": "t_string_storage"
          },
          {
            "astId": 20,
            "contract": "contracts/MedArchive.sol:MedArchive",
            "label": "hospitalAddr",
            "offset": 0,
            "slot": "2",
            "type": "t_address"
          }
        ],
        "numberOfBytes": "96"
      },
      "t_struct(PatientRecord)14_storage": {
        "encoding": "inplace",
        "label": "struct MedArchive.PatientRecord",
        "members": [
          {
            "astId": 7,
            "contract": "contracts/MedArchive.sol:MedArchive",
            "label": "id",
            "offset": 0,
            "slot": "0",
            "type": "t_uint256"
          },
          {
            "astId": 9,
            "contract": "contracts/MedArchive.sol:MedArchive",
            "label": "date",
            "offset": 0,
            "slot": "1",
            "type": "t_uint256"
          },
          {
            "astId": 11,
            "contract": "contracts/MedArchive.sol:MedArchive",
            "label": "description",
            "offset": 0,
            "slot": "2",
            "type": "t_string_storage"
          },
          {
            "astId": 13,
            "contract": "contracts/MedArchive.sol:MedArchive",
            "label": "cid",
            "offset": 0,
            "slot": "3",
            "type": "t_string_storage"
          }
        ],
        "numberOfBytes": "128"
      },
      "t_uint256": {
        "encoding": "inplace",
        "label": "uint256",
        "numberOfBytes": "32"
      }
    }
  }
}